:020000040800F2
:10000000500C0020A9010008BF3A0008812B00080D
:10001000BD3A0008A3140008D73F00080000000004
:10002000000000000000000000000000CF3D0008BC
:10003000A514000800000000CD3D0008D13D0008D7
:10004000C3010008C3010008C3010008C301000880
:10005000C3010008C3010008C3010008C301000870
:10006000C3010008C3010008C3010008C301000860
:10007000C3010008C3010008C3010008C301000850
:10008000C3010008C3010008C3010008C301000840
:10009000C3010008C3010008C3010008C301000830
:1000A000C3010008C3010008C3010008353E000871
:1000B000413E00084D3E0008C3010008912B000896
:1000C000852B0008C3010008C3010008C301000814
:1000D000C3010008C3010008C3010008C3010008F0
:1000E000C3010008C3010008C301000800F002F8C2
:1000F00000F04AF80AA090E8000C82448344AAF178
:100100000107DA4501D100F03FF8AFF2090EBAE875
:100110000F0013F0010F18BFFB1A43F0010318473B
:10012000D4490000F4490000103A24BF78C878C1CF
:10013000FAD8520724BF30C830C144BF04680C60ED
:10014000704700000023002400250026103A28BF35
:1001500078C1FBD8520728BF30C148BF0B60704739
:10016000662904F0AF81642900F0528000207047B6
:100170001FB500F059FC04000020002103F0C6FF69
:10018000E0601FBD10B510BD00F04EFD1146FFF739
:10019000EFFF03F04DFF00F06CFD03B4FFF7F2FF3B
:1001A00003BC00F0AFFD0000094880470948004744
:1001B000FEE7FEE7FEE7FEE7FEE7FEE7FEE7FEE717
:1001C000FEE7FEE704480549054A064B7047000074
:1001D000333E0008ED00000850060020500C0020BF
:1001E00050080020500800200FB41CB5074B06AA89
:1001F0007B4469460090059800F0CBFB00206946DF
:1002000000F0DAFB1CBC5DF814FB0000C507000021
:100210002DE9F0410646002410687529314616A5DF
:1002200010D0AFF30080002802DA404213A507E0A7
:1002300031688A0701D512A502E0490704D511A546
:10024000012401E0AFF3008000210A2206F1240717
:1002500009E0B0FBF2FCB0FBF2F302FB1C00303013
:1002600078541846491C0028F3D123462A463046C4
:10027000BDE8F04100F020B9000000002D000000B2
:100280002B000000200000002DE9F0474FF0000A8D
:1002900089460446C0F820A02046E1688847002827
:1002A00076D0252806D0D4E901219047206A401C49
:1002B0002062F1E7E168204600258847C4F81CA0C9
:1002C00006460027C4F818A02A2E09D0304603F0AD
:1002D000A7FE38B304EB8708303EC8F8186019E071
:1002E00059F8041B204604EB87029161E1688847B6
:1002F000012F064618D1E069002820DA25F02005F4
:100300001DE0D8F8180000EB800006EB4000303804
:10031000C8F818002046E1688847064603F080FECA
:100320000028EED1012F0AD02E2E08D12046E168F8
:1003300088477F1C0646022F45F02005C4DBA069D4
:10034000002803DA404245F00105A061E80701D02A
:1003500025F01005B6B1A6F14100192802D82036C3
:1003600045F400654A463146204625604D46FFF774
:10037000F7FE58B1012806D0ED1D25F0070000F169
:10038000080989E704E005F1040985E730468AE7B2
:10039000206ABDE8F087032A40F2308010F0030C99
:1003A00000F0158011F8013BBCF1020F624498BFC8
:1003B00011F801CB00F8013B38BF11F8013BA2F165
:1003C000040298BF00F801CB38BF00F8013B11F0E0
:1003D000030300F0F682083AC0F0088051F8043BAD
:1003E000083A51F804CBA0E80810F5E7121D5CBFED
:1003F00051F8043B40F8043BAFF30080D20724BF20
:1004000011F8013B11F801CB48BF11F8012B24BFB3
:1004100000F8013B00F801CB48BF00F8012B704702
:100420004FF000020429C0F0128010F0030C00F01D
:100430001B80CCF1040CBCF1020F18BF00F8012B9B
:10044000A8BF20F8022BA1EB0C0100F00DB85FEA69
:10045000C17C24BF00F8012B00F8012B48BF00F835
:10046000012B70474FF0000200B5134694469646A4
:10047000203922BFA0E80C50A0E80C50B1F12001B7
:10048000BFF4F7AF090728BFA0E80C5048BF0CC065
:100490005DF804EB890028BF40F8042B08BF7047C3
:1004A00048BF20F8022B11F0804F18BF00F8012B35
:1004B00070477047704770472DE9F0470D469946E1
:1004C0009246044600F124080168880604D5E069D4
:1004D00021F01001216000E00120A84201DD471B4E
:1004E00000E00027A1697A1902EB0900081AA0614F
:1004F0002078C00602D42046AFF30080002608E032
:10050000D4E901211AF806009047206A401C761CA5
:1005100020624E45F4DB2078C0060AD52046AFF3B2
:10052000008006E0D4E9012130209047206A401C79
:100530002062381EA7F10107F4DC07E0D4E90121AD
:1005400018F805009047206A401C2062281EA5F17B
:100550000105F3DC2046AFF300802078000602D5C9
:100560000220BDE8F0870120FBE770472DE9FF4F2F
:100570000C461E464FF0FF378BB0D2E90001DDF884
:1005800060800A908A46C1F30A5505B93D460021AC
:1005900008464FF00000BAF1000F00F4400005DA01
:1005A00000EB80004FF4400101EA50004FEA9059FF
:1005B000B9F1010F00DDB9460A9850EA4A000ED0A1
:1005C00044F61050A5F2FF3545432F14B8F1000F43
:1005D0001ED07542291E1EDDC9F100021CE0B8F1D3
:1005E000010F4FF0000001D0302103E0F24305E09D
:1005F0002154401CB042FBDB304600220021215434
:100600000B99C1F80880C1E900200FB0BDE8F08F58
:10061000BD1B6D1CDEE74A4600DA694206A800F001
:100620008DFA06AB93E8070003AB83E8070050465A
:100630000A9900F06EFB8DE80700A0F500501F3806
:1006400000900398002D0ADD42F21F014A4608443B
:10065000002303A90390684600F0D7FD09E0A0F548
:1006600000504A461F38002303A90390684600F053
:10067000E1FD8DE807000004000C03D04FF0FF30CF
:10068000410800E01046B8F1000F03D000220092AC
:1006900015461EE0751E05D400F0CAF930326255C9
:1006A0006D1EF9D5B3460122084302D000227F1CFB
:1006B00004E02078302801D100227F1E002A09970B
:1006C00084D01DE0112D07DA00F0B2F93032625506
:1006D0006D1C50EA0102F5D1084302D00098C8B160
:1006E0000EE00021681E05E0235C625C6354225426
:1006F000401E491C8142F7DBAB46A81B401E0990F7
:10070000002004F80B000B98099AC0F80880C0E993
:10071000002B7AE711264FF0000857E72DE9F04F3C
:1007200088460446D21D22F0070191B0D1E90001AC
:10073000CDE90A0103F050FC02460B98C00F01D02E
:100740002D2007E02068810701D52B2002E0202121
:1007500001EAC000032A099001D0072A05DB0346FD
:100760004146204600F0AAF90BE12078800601D529
:10077000E06900E00620B8F1650F814606D0B8F1C7
:10078000660F18D0B8F1670F70D131E00020B9F1D1
:10079000110F009001DB112301E009F101030AAA06
:1007A00001A90CA8FFF7E2FEDDE90C70002609F1B3
:1007B0000105834647E001204B4600904FF000477B
:1007C0000AAA01A90CA8FFF7D1FEDDE90DB00C992A
:1007D0005D46002610B909F101000D18B9EB0500BE
:1007E00003D4C0F1FF3609F10105A5EB09002BE0A8
:1007F000B9F1010F01DA4FF001090020B9F1110F31
:100800000090484601DD112300E003460AAA01A931
:100810000CA8FFF7ABFEDDE90C704D4600268346C1
:10082000207800070AD4AB4500DA5D4601A8012D07
:1008300004DD411911F8011C302907D04F4502DAB7
:1008400017F1040F04DA012082460FE06D1EEEE777
:10085000002F02DCED1B3E4403E0781CA84200DDC3
:100860007D1CB81B00F1010A4FF0004720780007FB
:1008700003D4AA4501DB4FF0FF3A0021B7F1004F46
:100880000DF143088DF8431024D002202B23002FB4
:1008900001DA7F422D230A21021EA0F1010000DCB3
:1008A0005FB197FBF1FC97FBF1F201FB1C7C174653
:1008B0000CF1300C08F801CDEEE7A8F1010003704F
:1008C0002188090501D5452100E06521A0F1010835
:1008D00000F8011C09980FA9A1EB0807FF1D00B142
:1008E0000120411901EBEA70A1693844081A401E41
:1008F000A0612078C00602D42046AFF3008009989A
:1009000028B1D4E901219047206A401C2062207858
:10091000C00622D52046AFF300801EE0002E04DB87
:10092000B34502DD01A8805D00E03020D4E901215B
:100930009047206A401C2062761CAAF101005FEA01
:10094000000A0AD100F070F8C0680168405CD4E980
:1009500001219047206A401C2062281EA5F1010554
:10096000DCDC07E0D4E9012118F8010B9047206A8C
:10097000401C2062381EA7F10107F3DC2046AFF3CC
:100980000080032011B041E601694A1C0261087829
:10099000704700B58FB0CDE90131002105910549BF
:1009A0007944CDE9031011466846FFF76DFC0FB09E
:1009B00000BD0000E5FFFFFF0A6802F8010B0A60B6
:1009C000704710B5203AC0F00B80B1E81850203ABB
:1009D000A0E81850B1E81850A0E81850BFF4F5AFDF
:1009E0005FEA027C24BFB1E81850A0E8185044BF69
:1009F00018C918C0BDE810405FEA827C24BF51F8D6
:100A0000043B40F8043B08BF7047D20728BF31F8C9
:100A1000023B48BF11F8012B28BF20F8023B48BF1A
:100A200000F8012B704700000048704710060020B6
:100A300030B5B0F10A024FEA900E71F100034EEAB0
:100A4000817EB0EB0E0061EB91014FEA101E4EEA81
:100A5000017E10EB0E0041EB11114FEA102E4EEA11
:100A6000016E10EB0E0041EB11214FEA104E4EEAE1
:100A7000014E10EB0E0041EB1141401841F1000115
:100A80004FEAD00040EA41704FEAD10110EB8005F7
:100A90004FEA810444EA907444EB01046D1944EB7D
:100AA0000404521BA3414FF0000348BF0A3200D593
:100AB00030BD401C41F1000130BD00002DE9F04186
:100AC0001F46044603260168072A01F4006004DB80
:100AD00008B116A505E016A503E008B115A500E0CC
:100AE00015A521F010002060A069C01EA0610FB103
:100AF000401EA0612046AFF300804FB1D4E9012130
:100B000038469047206A401C2062C01C206206E0E4
:100B1000206AFAE7D4E9012115F8010B9047761E07
:100B2000F8D22046AFF30080BDE8F0814E414E0080
:100B30006E616E00494E4600696E66002DE9F04711
:100B4000814616468AB0354878440DC88DE80D00B8
:100B500032487844801C03AC0DC884E80D0041F68F
:100B60009B300844372190FBF1F290FBF1F5A5F1A1
:100B7000800501FB12041B3C02D56442012000E009
:100B80000020DFF898A080460027FA44AAF1BE0AA8
:100B90000EE0E0070AD03246684607EB4701012322
:100BA0000AEB810100F046FB8DE8070064107F1C12
:100BB000002CEED1194F7F44AE3F19E0E80715D065
:100BC00007EB04100DF1180A90E80E008AE80E00F9
:100BD000C068F04201D1981908903246012306A955
:100BE00003A800F027FB03AB83E807006D10641C2B
:100BF000002DE3D14FF0010332466946B8F1000FF2
:100C000003A802D000F001FB01E000F013FBC9E9EA
:100C10000001C9F808200AB0BDE8F087903F000045
:100C200000487047F00500207546FFF7F9FFAE4613
:100C300005006946534620F00700854618B020B5E8
:100C4000FFF7C0FABDE820404FF000064FF0000764
:100C50004FF000084FF0000B21F00701AC46ACE864
:100C6000C009ACE8C009ACE8C009ACE8C0098D46D1
:100C7000704710B50446AFF300802046BDE8104031
:100C8000FFF78BBA4FF0013C50F8042B51F8043BAE
:100C90009A4221D1A2EB0C03934313EACC1317D150
:100CA00050F8042B51F8043B9A4215D1A2EB0C03E7
:100CB000934313EACC130BD150F8042B51F8043BA7
:100CC0009A4209D1A2EB0C03934313EACC13DBD075
:100CD0004FF00000704700BFD01A01BAB1FA81F19D
:100CE00001F0180122FA01F0CB40C1F12001DBB282
:100CF000C0B2C01A2CFA01F3D11A914311EAC31100
:100D0000E6D1704701491820ABBEFEE7260002007D
:100D100070475FEA400C08BF91F0000F4FEA8C2348
:100D20004FEAC12243EA51514FEA1C5018BF00F567
:100D3000F0404FEA300018BF41F000415FEA6C5CC0
:100D400000F02980BCF1FF3F08BF40F080407047B1
:100D5000130C06BF12044FF0100C4FF0000C130ED2
:100D600004BF12020CF1080C130F04BF12010CF1A6
:100D7000040C930F04BF92000CF1020CD30F04BFBC
:100D800052000CF1010C11464FF00002A0F11F00BF
:100D9000A0EB0C00704711F0004F08BF704731F016
:100DA00000413FF4D5AF0B0C06BF09044FF0100C07
:100DB0004FF0000C0B0E04BF09020CF1080C0B0FD6
:100DC00004BF09010CF1040C8B0F04BF89000CF166
:100DD000020CCB0F04BF49000CF1010CCCF1200335
:100DE000A0EB0C0022FA03F302FA0CF241EA030131
:100DF00000F10100704720F07F4C80EA030023F0EF
:100E00007F47ACEB070303F57C5300F0004003F190
:100E1000FF032DE980494FEA154B09B44FEA14430B
:100E200025EA0B4E24EA03480FF2042606EB1327AB
:100E300049083E785FEA320203FB0667C7F5000700
:100E400007FB06F64FEA54374FEAD64606F102068C
:100E500007FB066CCCF1005C4FEA1C472CEA074C00
:100E600007FB06F40CFB06F504EB15464FEA961655
:100E700034BF00204FF000404FEAD13706FB07FC9B
:100E80004FEA1C4C0CFB0BF7D21B03FB0CF761EB7E
:100E900007010CFB0EF7B0EB074072EB17420CFB9F
:100EA00008F734BFA2EB0742B2EB074261EB1741F0
:100EB0004FEA0C444FEA910706FB07FC4FEA1C4C33
:100EC0000CFB0BF7B0EBC74072EB573203FB0CF790
:100ED00034BFA2EBC742B2EBC74261EB57310CFB08
:100EE0000EF7B0EBC70072EB57720CFB08F734BF7C
:100EF000A2EBC702B2EBC70261EB5771039F4FEA47
:100F0000816141EA921104EBCC044FEAD1374FEAF8
:100F1000826206FB07FC42EA90124FEA80604FEAC9
:100F20001C4C0CFB0BF7D21B03FB0CF761EB07010E
:100F30000CFB0EF7B0EB074072EB17420CFB08F707
:100F400034BFA2EB0742B2EB074261EB17414FEA15
:100F50008C554FEA910704EB9C2406FB07FC4FEAF3
:100F60001C4C0CFB0BF7B0EBC74072EB573203FB8A
:100F70000CF734BFA2EBC742B2EBC74261EB57316B
:100F80000CFB0EF7B0EBC70072EB57720CFB08F7C7
:100F900034BFA2EBC702B2EBC70261EB577115EB8E
:100FA0004C254FEA816141EA92114FEA82624FEA91
:100FB000D13742EA901206FB07FC44F100044FEAE5
:100FC00080604FEA1C4C0CFB0BF7D21B03FB0CF7A9
:100FD00061EB07010CFB0EF7B0EB074072EB174219
:100FE0000CFB08F734BFA2EB0742B2EB074261EB00
:100FF000174115EB1C154FEA813141EA92414FEA46
:10100000823242EA90424FEA80304FEA0C7644F155
:10101000000448EA03434EEA0B484FF0000EB2EBDF
:10102000080C71EB030724BF624639464EEB0E0EE7
:101030004FF0000B0018524149414BEB0B0BB2EB48
:10104000080C71EB03077BF1000B24BF62463946A5
:101050004EEB0E0E4FF0000B0018524149414BEB86
:101060000B0BB2EB080C71EB03077BF1000B24BFF9
:10107000624639464EEB0E0E51EA020718BF46F0A3
:10108000010616EB0E7655F1000254F1000103D56E
:10109000BDE88901BDE80088BDE88901BDE80048D8
:1010A000B619524141EB0101A3F101037047808061
:1010B0007F7E7D7C7B7A79787776767574737271B2
:1010C00071706F6E6E6D6C6C6B6A6A69686867666A
:1010D00066656464636362616160605F5F5E5E5DFC
:1010E0005D5C5C5B5B5A5A59595858575756565570
:1010F00055555454535352525251515050504F4FD2
:101100004F4E4E4D4D4D4C4C4C4B4B4B4A4A4A4921
:101110004949484848474747474646464545454464
:101120004444444343434342424242414141002BF1
:101130009C4630D477002BD01CB54FEA370703B458
:101140004FF010004FF01001BAF1000F06D0BCF1C3
:10115000000FDCBF40F0080040F008014FF0000035
:101160000FBCBDE810400BF1010BBBF1010F08BF34
:101170005FEA170722BF12F1010211F101014FF0DE
:10118000004143F1000300F0004043EA00007047D3
:10119000F9D35708D0E746EA064613F1400F4FEA65
:1011A00016461FDD13F1200FDFBF16430A4600214C
:1011B00020335B42BED0C3F1200746EA064602FA5E
:1011C00007F74FEA164646EA0706C3F1200722FA58
:1011D00003F201FA07F721FA03F14FF0000342EAA4
:1011E0000702A7E746EA020646EA06464FEA16461F
:1011F00046EA0106BCBF46EA0646360C4FF000033D
:101200004FF000024FF0000194E72DE9804C9A4620
:10121000934670B491E8380007C831EA400C48BFE3
:1012200034EA430C03D5FFF7E6FDFFF780FFF0BC7F
:10123000BDE8008C2DE9804C9A46934670B491E845
:10124000380007C810F0804F08BF13F0804F03D15B
:1012500000F005F8FFF76BFFF0BCBDE8008C20F054
:101260007F4780EA030023F07F4C07EB0C03A3F5D4
:101270007C5300F00040A3F1FE0392F0000F00F059
:10128000B38095F0000F00F077802DE901494FEA17
:1012900011404FEA144621EA004800FB06FC24EA0C
:1012A000064708FB06F607FB08F800FB07F718EBF4
:1012B00006484CEB164C4FEA124B18EB07484FEA26
:1012C00015464CEB174022EA0B4E0BFB06FC25EAB9
:1012D00006470EFB06F607FB0EFE0BFB07F71EEBA1
:1012E000064E4CEB164C4FF000061EEB074E4CEB37
:1012F000174B18EB0B0840F1000018EB0E0B58EBE6
:10130000000840F100008F1A4FF000013CBFC943B4
:10131000661B14BFB5EB040C00213CBFC943F61B90
:101320004FEA17444EEA8E0E27EA04454FEA1C475F
:1013300004FB07622CEA074C05FB07F70CFB05F6DC
:1013400004FB0CFC16EB074642EB174216EB0C466F
:1013500042EB1C421BEB060658EB0202414146EAF7
:101360009E0601D5BDE80189B619524141EB010144
:10137000A3F10103BDE801894FEA14454FEA114783
:1013800024EA054621EA074C05FB07F406FB07F7AC
:101390000CFB06F105FB0CFC11EB074144EB174479
:1013A0004FEA124711EB0C4144EB1C4422EA074C74
:1013B00005FB07F206FB07F70CFB06F605FB0CFC2A
:1013C00016EB074642EB174216EB0C4642EB1C4568
:1013D0006A1854F1000148BF7047B619524141EBF9
:1013E0000101A3F10103704795F0000F37D04FEAD8
:1013F00011424FEA144721EA024624EA074C02FB55
:1014000007F106FB07F70CFB06F402FB0CFC14EBE0
:10141000074441EB17414FEA154714EB0C4441EBED
:101420001C4125EA074C02FB07F506FB07F70CFBFE
:1014300006F602FB0CFC16EB074645EB174516EBD0
:101440000C4645EB1C42121951F1000148BF704790
:10145000B619524141EB0101A3F1010370474FEA74
:1014600014454FEA114724EA054621EA074C05FBDB
:1014700007F106FB07F70CFB06F24FF0000605FB31
:101480000CFC12EB074241EB174112EB0C4251EB03
:101490001C4148BF7047921841EB0101A3F10103C1
:1014A0007047FEE7704772B6FEE7000010B590F88F
:1014B00021100024022903D00421816301243DE08E
:1014C00001680A6822F00E020A6001680A6822F0C8
:1014D00001020A601A4A0168914201D1012121E00A
:1014E000174A1432914201D110211BE0144A2832CC
:1014F000914201D1891515E0114A3C32914201D146
:1015000089140FE00E4A5032914202D14FF48031DB
:1015100008E00B4A6432914202D14FF4801101E09D
:101520004FF08071064A083A5160012180F821107D
:10153000002180F82010416B01B18847204610BD82
:101540000800024090F821007047000070B5044682
:1015500000F008F90546601C02D0044800780444F5
:1015600000F000F9401BA042FAD370BD000000203B
:101570002DE9F84FDFF8B8910024A9F1040B2346B8
:101580000F2709F1040AABF1040EC9E00125A540BB
:101590002A40AA427DD1674ED1F804C0ACEB0608C0
:1015A000B44532D014DCBCF1030F3AD009DCBCF1F5
:1015B000000F2AD0BCF1010F1CD0BCF1020F31D1B9
:1015C0001DE0BCF1110F17D0BCF1120F2AD119E0A8
:1015D000B8F5881F19D006DCB8F5803F15D0B8F5EE
:1015E000801F1FD111E0B8F5001F0ED0B8F5041F01
:1015F00018D10AE0CB6815E0CB681B1D12E0CB6860
:1016000008330FE0CB680C330CE08B682BB1012B57
:101610004FF0080303D0456104E0042302E00561B4
:1016200000E00023FF2A01D8064601E000F104068D
:101630004FEA840501D9A5F12005D6F8008007FA04
:1016400005FC28EA0C0803FA05F548EA0508C6F87F
:1016500000804D68ED0062D5374DAE6946F0010659
:10166000AE61AD6924F0030605F001050095334D28
:1016700006EB050CDCF80850A607360F07FA06F84B
:1016800025EA0805DFF8B880404503D14FF000088F
:1016900017E044E0DFF8AC80404502D14FF001088C
:1016A0000FE0DFF8A480404502D14FF0020808E0C7
:1016B000DFF89880404502D14FF0030801E04FF079
:1016C000040808FA06F848EA0508CCF808804D68CE
:1016D000D9F80060ED024D4601D5164300E096436F
:1016E0002E604D68DAF80060AD02554601D516430C
:1016F00000E096432E604D68DBF80060AD035D4668
:1017000001D5164300E096432E604D68DEF8006078
:10171000ED03754601D5164300E096432E60641C28
:101720000D682A46E5407FF431AFBDE8F88F000030
:1017300008040140000011100010024000000140A8
:1017400000080140000C014000100140001401405D
:101750008068084000D0012070470AB101617047DD
:101760000904FBE701488068704700000000002082
:10177000704770472DE9F041016804464A694E6898
:1017800090F83E000025D743FA050BD4F243D2056A
:1017900008D46FF4807201254A6121680A6842F416
:1017A00000420A60B90508D4F143C90505D422688E
:1017B0006FF4007145F002055161790525D4F143BC
:1017C000C90522D4638D94F83D10226B202808D1DE
:1017D0003BB9212910D029290ED0282901D1212A4D
:1017E0000AD022686FF48061516145F00405102829
:1017F00006D0402804D008E0204601F02BFE04E08B
:101800002068016841F400710160380508D4F04394
:10181000C00505D421686FF4006045F008054861F3
:10182000002D07D0206C284320642046BDE8F041FD
:1018300001F01ABABDE8F0812DE9F04702680021F5
:101840005368C66A90F83E4090F83D50102C12D074
:10185000402C10D0046C002C7DD05469E443A607C2
:101860007AD4DE43B60577D4036C03B19169BDE841
:10187000F04701F0CBBD976951694FF42A0CC94379
:101880005FEAC1784FF02A4904D066452AD04E4518
:1018900028D010E0DE43B6050DD4C16A614501D100
:1018A000012103E0C16A494501D10821C162BDE8B7
:1018B000F04701F011BD0E0716D4DE43B60513D470
:1018C000416CC9B21161416B09B1896A29B9816B57
:1018D000002907D0896A002904D00068416841F4D2
:1018E00000614160BDE8F0878E0706D4DE43B6058F
:1018F00003D4BDE8F04701F043BCFE4352687607CD
:101900004FEA02521DD4002AECDB0A0608D4DA435F
:10191000520505D4490705D5BDE8F04701F0D4BB11
:101920004907DFD4D9438905DCD4212D05D0402CCB
:10193000D8D1BDE8F04701F015BDBDE8F04701F092
:1019400081BB002ACEDB4A060BD4DA43520508D409
:10195000490708D501E00DE00EE0BDE8F04701F0D1
:10196000AFBA4907BED4D9438905BBD4BDE8F04717
:1019700001F03DBA916970E7E10606D4D9438905C3
:1019800003D4BDE8F04701F0ADBD2821212D27D0BB
:10199000292D25D0650655D4DD436D0552D4640745
:1019A00052D590F83D30448D002C9BD01269446A8A
:1019B0002270426A521C4262428D521E4285428D02
:1019C000002A8FD12A2B8DD10268536823F48063BB
:1019D00053602222026380F83D1000F0E5F981E7B0
:1019E000250623D4DD436D0520D4640720D590F867
:1019F0003D30448D002CF2D0446A24781461426A50
:101A0000521C4262428D521E4285428D002AE6D10E
:101A1000292BE4D10268536823F4806353602122A8
:101A2000026380F83D1000F0C0F95BE76107D6D48F
:101A3000D9438905D3D4418D0029D0D0416A097892
:101A400011610AE06107CAD4D9438905C7D4418D21
:101A50000029C4D01169426A1170416A491C41626F
:101A6000418D491E41853DE77047000070B5040077
:101A700025D094F83D00002520B984F83C5020463C
:101A800000F054F9242084F83D002068016821F01A
:101A9000010101602068016841F400410160206893
:101AA000016821F40041016000F0A6FA4D4A616826
:101AB000914201D84C4900E04C49884201D20120B2
:101AC00070BD4B492368B0FBF1F15E6826F03F061C
:101AD0000E435E606368934206D94FF49673594390
:101AE0004FF47A73B1FBF3F12368491C1E6A26F0A8
:101AF0003F06314319626168914210D84900401E87
:101B0000B0FBF1F2521CC2F30B02042A01D20420F2
:101B100022E0B0FBF1F0401CC0F30B001CE0A26817
:101B2000F2B301EBC10303EB0116431EB3FBF6F363
:101B30005B1C43F480431B0549D092B301EBC10207
:101B400002EB0111401EB0FBF1F0401CC0F30B0092
:101B500040F4804040F400402168CA694CF6FF73AD
:101B60009A431043C861D4E9071001432068026812
:101B700022F0C00211430160D4E90301014320684F
:101B8000826848F2FF339A4311438160D4E905012A
:101B900008432168CA6822F0FF021043C86001E0D0
:101BA0000EE016E02068016841F001010160256443
:101BB000202084F83D00256384F83E50002070BD4D
:101BC00001EB4106431EB3FBF6F35B1CB3E70120B8
:101BD000C2E701EB4101401EB0FBF1F0401CC0F335
:101BE0000B00B7E7A086010080841E0000093D00BD
:101BF00040420F0070477047704700002DE9F84FD2
:101C00001F4690468A460446DDF82890FFF7AAFD55
:101C1000054694F83D0020287FD119230122404930
:101C20002046009501F038FD002876D194F83C005C
:101C3000012872D0012084F83C0020680168C9079F
:101C400003D1016841F0010101602068016821F4BD
:101C500000610160212084F83D00102084F83E00DE
:101C600000262664C4F824806785608D20852D4871
:101C7000E0622B464A465146204601F095F990B95C
:101C8000206841698069009036E02A46494620462E
:101C900001F0A8FD50B1206C042804D1206801682F
:101CA00041F4007101600120BDE8F88F606A21688D
:101CB00000780861606A401C6062618D491E618520
:101CC000218D491E89B2218522685369DB435B0758
:101CD0000BD451B100781061606A401C6062608D65
:101CE000401E6085208D401E20852A46494620469C
:101CF00001F0A6FC0028CED1208D0028C5D154F8D3
:101D00003D0B016841F400710160202004F81E09B8
:101D1000E67766770020C7E7FFE70220C4E7000008
:101D2000020010000000FFFF7047704710B586B03A
:101D300000210091019102910391006817498842A6
:101D40002AD1174CA06940F00800A061A06969463B
:101D500000F008000490C0200090122001900320A1
:101D600003901048FFF704FCE06940F40010E061C4
:101D7000E069002200F40010049011461F2000F0DA
:101D800073F81F2000F062F800221146202000F0B6
:101D90006BF8202000F05AF806B010BD0054004047
:101DA00000100240000C01407047704702488168F3
:101DB000027811448160704700000020074810B588
:101DC000016841F010010160032000F06DF80F2060
:101DD00000F006F800F024F8002010BD00200240BA
:101DE00070B50D4D04464FF47A712878B1FBF0F0D0
:101DF0000A490968B1FBF0F000F0C4FA48B9102CA8
:101E000007D200222146501E00F02EF800206C6000
:101E100070BD012070BD0000000000200C000020FB
:101E2000094808B5816941F001018161816901F0CA
:101E300001010091C16941F08051C161C06900F0A8
:101E40008050009008BD000000100240002809DB0F
:101E500000F01F02012191404009800000F1E020C4
:101E6000C0F8001170470000F0B40E4B1B680C4620
:101E7000C3F30223C3F10705042D00D90425191D5E
:101E8000072901D2002300E0DB1E012606FA05F136
:101E9000491E214099409E40761E16403143F0BCB9
:101EA00002F0AEB80CED00E0064900F00702086849
:101EB0004FF6FF03184040EA0220034A104308602F
:101EC000704700000CED00E00000FA052DE9F04736
:101ED0000F46050061D0434E306800F00700B8425D
:101EE00009D2306820F0070038433060306800F0D5
:101EF0000700B84251D128683B4C810712D54007F2
:101F000003D5606840F4E06060602878000703D57E
:101F1000606840F4605060606068A96820F0F0007C
:101F2000084360602878C00728D06868012810D06E
:101F30002168022810D0890700292EDA616821F073
:101F4000030101436160FFF70DFC804641F28839CF
:101F50000DE021688903EFE78901EDE7FFF702FC57
:101F6000A0EB0801494502D90320BDE8F08760686D
:101F7000696800F00C00B0EB810FEFD1306800F021
:101F80000700B8420BD9306820F0070038433060B2
:101F9000306800F00700B84201D00120E5E728785A
:101FA000400705D56068E96820F4E0600843606098
:101FB0002878000706D56068296920F4605040EA57
:101FC000C100606000F028F86168084AC1F303119D
:101FD000515CC8400649086006480068FFF700FFEA
:101FE0000020C2E70020024000100240CA4500085D
:101FF0000C000020040000200448054900684968DE
:10200000044AC1F30221515CC84070470C00002013
:1020100000100240DA4500080E4A51680E4801F0EF
:102020000C03042B11D0082B0FD10C48C1F38343B0
:10203000C903C05C0AD55168084AC1F34041921EE9
:10204000515C054A5043B0FBF1F0704704494843E6
:10205000704700000010024000127A00BA450008E4
:1020600000093D002DE9F84F040070D02078C04DE4
:10207000C00749D06868C0F38100012807D06868AC
:10208000C0F38100022809D16868C00306D528681A
:10209000800339D560680028E7D035E06068B0F586
:1020A000803F0BD010B1B0F5A02F11D0286820F4DC
:1020B00080302860286820F4802002E0286840F4FE
:1020C00080302860606890B1FFF74CFB06460AE05C
:1020D000286840F480202860F0E700BFFFF742FB4B
:1020E000801B642873D828688003F7D50CE0FFF7BD
:1020F00039FB064605E000BFFFF734FB801B642870
:10210000F0D828688003F7D420789A4E80074FF0E3
:1021100001094FF0000839D5686810F00C0F07D09E
:102120006868C0F38100022809D16868C00306D43A
:102130002868800714D52069012808D110E020699B
:10214000B0B1C6F80090FFF70DFB074605E00AE1C5
:10215000FFF708FBC01B0228C4D828688007F7D502
:102160002868616920F0F80040EAC10028600DE0AD
:10217000C6F80080FFF7F6FA074604E0FFF7F2FA28
:10218000C01B022823D828688007F7D420780007CE
:102190002CD57948A169D9B1C0F80090FFF7E2FACF
:1021A000074604E0FFF7DEFAC01B02280FD8686A72
:1021B0008007F7D571484FF4FA510068B0FBF1F091
:1021C000009000BF0098411E0091FAD20EE080E01E
:1021D000C0F80080FFF7C6FA074604E0FFF7C2FA2E
:1021E000C01B022875D8686A8007F7D4207840079A
:1021F00060D5E8690027C00008D4E86940F0805045
:10220000E861E869012700F0805000905C480168AF
:10221000C90513D40168834641F480710160FFF75A
:10222000A1FA824606E000BFFFF79CFAA0EB0A0085
:1022300064284ED8DBF80000C005F5D5E068012819
:102240000AD008B1052813D0286A20F001002862BE
:10225000286A20F0040002E0286A40F001002862A9
:10226000E06841F2883B98B1FFF77CFA82460BE0C8
:10227000286A40F004002862EEE700BFFFF772FA18
:10228000A0EB0A0159455AD8286A8007F6D50CE018
:10229000FFF768FA824605E0FFF764FAA0EB0A014F
:1022A00059454CD8286A8007F6D41FB1E86920F058
:1022B0008050E861E06988B36968C1F3810102294F
:1022C00044D00228C6F8608004D0FFF74BFA0446D9
:1022D00038E034E0FFF746FA074604E0FFF742FA39
:1022E000C01B02282BD828688001F7D4206AB0F5DB
:1022F000803F05D16868A16820F400300843686019
:10230000D4E908010843696821F47411084368603E
:10231000C6F86090FFF726FA044606E025E000BF05
:10232000FFF720FA001B022809D828688001F7D59A
:102330001BE000BFFFF716FA001B022802D903209A
:10234000BDE8F88F28688001F4D40EE00128F7D0AA
:102350006868226A00F48031914204D1616A00F415
:102360007010884201D00120EAE70020E8E7000071
:102370000010024000004242800442420C00002053
:102380000070004010B5401EB0F1807F01D30120E5
:1023900010BD4FF0E02460610F21601701F030FEA6
:1023A0000020A06107202061002010BD7047704709
:1023B00070B590F83C20012A26D0012480F83C40DA
:1023C000022280F83D2003685A689D6822F070065A
:1023D0000A6832435A600D4B02689A4208D0B2F143
:1023E000804F05D00A4B9A4202D00A4B9A4204D140
:1023F000496825F080031943916080F83D40002131
:1024000080F83C10084670BD022070BD002C0140D1
:10241000000400400008004010B5040003D094F808
:102420003D0010B107E0012010BD002084F83C0001
:10243000204600F01FF8022084F83D00211D20688E
:1024400001F00AFD012084F8460084F83E0084F87B
:102450003F0084F8400084F8410084F8420084F88A
:10246000430084F8440084F8450084F83D000020CF
:1024700010BD000000B585B00021009101910291CE
:10248000039102682A482B4982420ED1886940F4A0
:10249000006088618869002200F4006004901146A1
:1024A0001B20FFF7E1FC1B203DE02348B2F1804FE9
:1024B0001ED0224B9A4238D1CA6942F00202CA6148
:1024C000CA6902F0020204928A6942F004028A6137
:1024D000896901F004010491402100916946FFF7E8
:1024E00047F8002211461D20FFF7BEFC1D201AE010
:1024F000CA6942F00102CA61CA6902F0010204928B
:102500008A6942F004028A61896901F00401049138
:10251000012100916946FFF72BF8002211461C208B
:10252000FFF7A2FC1C20FFF791FC05B000BD0000E6
:10253000002C01400010024000080140000400404F
:1025400090F83D10012901D001207047022180F848
:102550003D1000680B49884208D0B0F1804F05D08B
:102560000949884202D00949884204D1816801F0B2
:102570000701062903D0016841F001010160002034
:1025800070470000002C014000040040000800409B
:1025900070B5044690F83C000025012817D00126AC
:1025A00084F83C60022084F83D002068826822F0B4
:1025B000770222F47F4282600868502838D00DDC10
:1025C00020284FD005DC90B3102811D14AE002201A
:1025D00070BD302846D040280AD13BE060282FD07B
:1025E00070280DD0B0F5805F03D0B0F5005F12D039
:1025F000012584F83D60002084F83C00284670BD29
:10260000CB68D1E90121206801F069FC206881686C
:1026100041F0770109E0CB68D1E90121206801F0A0
:102620005EFC2068816841F480418160E1E719E047
:10263000CA684968206801F064FC5021206806E0FF
:10264000CA684968206801F099FC6021206801F09F
:1026500050FCCEE7CA684968206801F052FC40216E
:102660002068F4E7226801461046F0E7104910B5EB
:1026700088421CD1007F012819D100210C4800F0AC
:1026800069FA0C4C04212060094800F063FA60608C
:102690002168401A01F08AFD074A084B01F09EFDAF
:1026A0004FF0FF3201F042FF01F046FDA06010BD87
:1026B000BC000020140000209CC420B07268A13F20
:1026C0002DE9F041054690F83C0000260C46012813
:1026D00010D0012085F83C0072B1042A1CD0082AD1
:1026E0002CD00C2A50D00126002085F83C00304622
:1026F000BDE8F0810220FBE7D4E90012E368286816
:1027000001F010FC2868816921F00C0181612868C2
:102710008169A26811430FE0D4E90012E3682868D8
:1027200001F03EFC2868816921F4406181612868DC
:102730008169A26841EA02218161D5E72868D4E96C
:10274000002C277B036A016A21F480710162C16950
:1027500023F4007321F0030141EA0C0121F0F00C95
:1027600039074FF400774CEA116107EA02221A4355
:10277000C16102622868C16921F00C01C161286849
:10278000C169A26811432BE02868D4E90021E768F9
:10279000036AD0F820C02CF4805CC0F820C0D0F8C8
:1027A0001CC023F400532CF4407C4CEA012121F49A
:1027B000704C4FF6FF7101EA07314FF4005741EAC0
:1027C0000C0107EA02321A43C16102622868C1693A
:1027D00021F44061C1612868C169A26841EA02210F
:1027E000C16181E710B5040003D094F83D0010B139
:1027F00007E0012010BD002084F83C00204600F0D6
:102800001EF8022084F83D00211D206801F024FB01
:10281000012084F8460084F83E0084F83F0084F8E4
:10282000400084F8410084F8420084F8430084F8B2
:10283000440084F8450084F83D00002010BD704736
:1028400030B50446002551B104290DD0082910D017
:1028500094F8410094F84520012811D10EE094F835
:102860003E0094F84220F7E794F83F0094F84320A4
:10287000F2E794F8400094F84420EDE7012A01D0F3
:10288000012030BD022059B1042912D0082919D0E5
:1028900084F8410084F845000C2938D0012534E043
:1028A00084F83E0084F842002068C26842F00202C8
:1028B00010E084F83F0084F843002068C26842F0CA
:1028C000040207E084F8400084F844002068C268ED
:1028D00042F00802C2600122206801F0F3FA0E49BA
:1028E0002068884208D0B0F1804F05D00B4988425B
:1028F00002D00B49884204D1816801F00701062902
:1029000003D0016841F001010160284630BD206814
:10291000C26842F01002DDE7002C014000040040D4
:102920000008004070B50446006801694FF00005DA
:10293000C943890715D4C168C943890711D4E91E61
:10294000016101202077206880698007204602D03D
:10295000FFF78CFE04E000F098F8204600F096F8AF
:10296000257720680169C943490717D4C168C9435D
:10297000490713D46FF00401016102202077206819
:10298000806910F4407F204602D0FFF76FFE04E01C
:1029900000F07BF8204600F079F82577206801697F
:1029A000C943090716D4C168C943090712D46FF097
:1029B00008010161042020772068C0698007204653
:1029C00002D0FFF753FE04E000F05FF8204600F06D
:1029D0005DF8257720680169C943C90617D4C16825
:1029E000C943C90613D46FF0100101610820207794
:1029F0002068C06910F4407F204602D0FFF736FE01
:102A000004E000F042F8204600F040F82577206806
:102A10000169C943C90708D1C168C943C90704D1BD
:102A2000891E0161204600F033F820680169C9431E
:102A3000090609D4C168C943090605D46FF08001AD
:102A400001612046FFF7B2FC20680169C9434906CD
:102A500009D4C168C943490605D46FF0400101613A
:102A6000204600F08CF820680169C94389060BD420
:102A7000C168C943890607D46FF02001016120466F
:102A8000BDE87040FFF793BC70BD70477047000011
:102A900070B501682C4881424DD12C4D81142846D7
:102AA000FEF756FE00B10120294C4FF40051607032
:102AB0002846FEF74DFE00B1012060724FF48041C0
:102AC0002846FEF745FE00B1012060744FF4004136
:102AD0002846FEF73DFE00B1012060760020024648
:102AE0005FF0010314F8301021B1012909D0022947
:102AF0001ED111E004EBC0014D78CDB904F830309F
:102B000015E004EBC001497811B104F830200FE062
:102B1000022104F830100BE004EBC0014D78012DC8
:102B20000AD04D686D1C4D60462D01D9CB704A60AE
:102B3000401C0428D6DB70BD04F830204D68462DBB
:102B4000F6D28B70F4E70000002C01400008014031
:102B50004C0100200246002041B1042909D0082977
:102B60000AD00C2901D11068006C70471068406BC6
:102B700070471068806B70471068C06B7047704773
:102B8000FEE700000148FEF7F5BD00002000002030
:102B90000148FEF751BE00002000002038B5406A11
:102BA000002190F83D202B4B46F2A8141B68B3FB84
:102BB000F4F3C3EBC30303EB830300933BB15B1E4E
:102BC000009303681B689B0505D5009BF6E7036C23
:102BD00043F020030364436B03B19962836B03B139
:102BE000996203681C6824F480641C604185436B0F
:102BF00003B15963836B03B1596303681C6824F004
:102C000001041C6090F83D402023602C0BD0282448
:102C100034EA02020FD080F83D3080F83E1000BF49
:102C2000FEF722FF38BD80F83D3080F83E10016489
:102C3000FEF79EFD38BD0268136843F00103136080
:102C40000268136843F480631360016380F83D40B9
:102C5000E6E700000C00002000684169C94309064E
:102C600001D400210161704770B5044690F83D0021
:102C700094F83E10102901D0402906D1222804D111
:102C800021680A6822F400620A60282131EA000201
:102C90004FF000054FF0200626D02168496809054D
:102CA00005D4602803D084F83D6084F83E50256345
:102CB00020684168090537D5416821F40061416009
:102CC000606B90F821203C49012A11D04163606B70
:102CD000FEF7ECFB38B32068016821F001010160C8
:102CE00084F83D60606B1CE0256384F83D10DFE7ED
:102CF000A06B4163A06BFEF7D9FBA0B120684169CE
:102D0000C943490605D40069616A0870606A401CBD
:102D100060622068016821F00101016084F83D6073
:102D2000A06B416B884710E094F83D10602910D0EB
:102D30004169C943490605D40069616A0870606A3F
:102D4000401C60622046FEF78FFE206CC1071CD13C
:102D500015E084F83D6025644169C943490605D4FE
:102D60000069616A0870606A401C606220680168DE
:102D700021F0010101602046FEF7FAFCE5E781073A
:102D800003D4410701D4000704D52068416821F429
:102D9000E061416094F83D00216C49070BD528287B
:102DA00009D10648E062256384F83D6084F83E500E
:102DB0002046FEF71FFF70BD9D2B00080000FFFF9F
:102DC00001684A69D24352050FD46FF480624A61A8
:102DD000002140F8301F202242738173026942F0C3
:102DE000040202610173012070470020704710B592
:102DF000C26A438D0168042B06D0438D032B08D093
:102E0000438D022B1DD012E04A6822F480624A6092
:102E10000CE04B6823F480634B60042A06D0022A3E
:102E200004D001680A6822F480620A6001680969B6
:102E3000426A1170416A491C4162418D491E4185B7
:102E400010BD012A30D0102A2ED0042A30D0022AF8
:102E50002ED00A6842F400720A6001680969426A69
:102E60001170416A491C4162428D521E42850268BE
:102E700012690A70416A491C4162418D491E4185AF
:102E800001684A6822F440724A60202180F83D10AF
:102E900090F83E200021402A80F83E100CD01221EC
:102EA0000163FEF7A8FE10BD0A6822F48062D3E732
:102EB0000A6842F48062CFE70163FEF735FF10BD78
:102EC00038B590F83D1022290FD1418D03290DD935
:102ED00001680969426A1170416A491C4162418D69
:102EE000491E4185418D032906D038BDC26A022A98
:102EF00002D0012906D029B10068416821F480611F
:102F0000416038BD274946F2A81300220968B1FB89
:102F1000F3F101EB8101009101682023009C641E04
:102F2000009422D00C68A405F8D40C6824F48064C2
:102F30000C6001684C6824F4E0644C600168096925
:102F4000446A2170416A491C4162418D491E418594
:102F500080F83D3090F83E1080F83E2040291DD08A
:102F600012210163FEF747FE38BD046C44F02004D3
:102F700004644C6824F4E0644C6001680969446AA4
:102F80002170416A491C4162418D491E418580F88A
:102F90003D3080F83E20FEF767FD38BD0263FEF746
:102FA000C3FE38BD0C000020F8B50446C06A1E46BA
:102FB0000D461746082807D0012805D010F5803F98
:102FC00002D0206B122804D12068016841F480717E
:102FD0000160134600224FF001112046009600F0D8
:102FE0005BFB40B120680068C00502D54FF400705B
:102FF00020640320F8BD2069B0F5804F0ED0062074
:10300000216800EAD51040F0F000086133463A46E6
:103010000B49204600F088FB78B902E005F0FE007D
:1030200000E0E8B221680861054933463A46891F45
:10303000204600F079FB0028DCD00120F8BD00001C
:103040000800010010B5C26A90F83D1021290BD18B
:10305000418D51B1416A026809781161416A491C88
:103060004162418D491E418510BD20230021082A5F
:1030700013D0202A11D012F5803F0ED00268546878
:1030800024F4E06454601122026380F83E1080F85A
:103090003D3000BFFEF7B0FD10BD0268546824F457
:1030A000E06454600268146844F4007414600163BE
:1030B00080F83D3090F83E2080F83E10402AE9D15B
:1030C000FEF733FE10BD000010B590F83D1090F8EB
:1030D0003E30C26A048DB4B1212903D0402B11D1F6
:1030E00022290FD1418DE1B390F83E10402942D002
:1030F000416A026809781161416A491C4162418D47
:10310000491E418510BD2129E8D120230021082A2C
:1031100013D0202A11D012F5803F0ED002685468D7
:1031200024F4E06454601122026380F83E1080F8B9
:103130003D3000BFFEF760FD10BD0268546824F406
:10314000E06454600268146844F40074146001631D
:1031500080F83D3090F83E2080F83E10402AE9D1BA
:1031600000E002E0FEF7E1FD10BD0068416821F4D7
:103170008061416010BDBDE8104000F0F3B8000070
:1031800078B590F83E50C26A046B90F83D60002319
:103190000168222E73D1066D0EB9402D6FD0056DDA
:1031A0001DB90569B5F5404F1BD0458D95B3468DCA
:1031B000484D012E20D0448D022C4DD00C6844F493
:1031C00080640C6001684C68240579D5AA4273D0EC
:1031D000012A71D0082A6FD0102A6DD0202A6BD016
:1031E0006EE04A698A6900920A6842F480720A6055
:1031F000016D491C016578BDAA4214D10A6822F408
:1032000080620A6001684A68120504D50A6822F4DF
:10321000806217E0FFE74A698A6900920A6842F40F
:1032200000720A6050E0082A10D0202A0ED0122C1A
:103230000AD0042A03D0022A01D0102AE6D10A6853
:1032400042F480620A603BE0012ADFD00A6822F47F
:1032500080620A600168DEE7042A11D0022A0FD0DA
:10326000102A0DD00C6844F400640C6001684C69AD
:103270008C6900940C6824F480640C6008E025E0FC
:103280000C6844F480640C6001684C6989690091A1
:1032900001684C68240517D5AA4207D0012A05D039
:1032A000082A03D0102A01D0202A0DD14A6842F4FE
:1032B00080524A6008E0FFE74A6842F480524A6060
:1032C00001684A6989690091036578BD4869886920
:1032D000009078BD0000FFFF90F83E10402910D00C
:1032E0000169B1F5804F19D0016DA9B3016D0129B4
:1032F00010D1416C5FF0F10201F4407142EAD1114A
:1033000006E0016D0029416C05D0C9B241F0010110
:1033100000680161704701F0FE01F9E790F83D1087
:103320002129416C09D0C9B241F001010268116143
:10333000416B29B1896A49B902E001F0FE01F5E764
:10334000816B0029E6D0896A0029E3D000684168D2
:1033500041F4006141607047FFE7416CF02201F4E5
:103360004071CBE710B590F83D10026D4AB1026D87
:10337000012A14D0026D022A16D0BDE81040FFF7D2
:103380006BBCC16C0129816C02D0C1F3072108E03C
:103390000268C9B21161016D891C016510BD816CA3
:1033A000C9B20268116123E022291CD0428D0AB102
:1033B000212920D0428D002AF0D12129EED10168A7
:1033C0004A6822F4E0624A6001680A6842F40072C6
:1033D0000A6000210163202280F83D2080F83E1021
:1033E000FEF7A3FC10BD01680A6842F480720A600F
:1033F000016D491CD1E7416A026809781161416A8F
:10340000491C4162418D491E418510BD38B50C46AD
:1034100090F83D2000212825954302680B4605D0F1
:1034200051699169009180F83C3038BD556825F4A8
:1034300080655560E243540700D50121120601D58D
:10344000828900E0028B80F83C3092B2FEF791F95D
:1034500038BD00002DE9F04190F83D300446C26AC5
:10346000002120261E4F00686FF48065082A01D0D5
:10347000202A01D1282B04D0212B17D04561BDE88B
:10348000F081E762426822F4E062426020684561B0
:103490002068026822F480620260216384F83D6043
:1034A00084F83E102046FEF7A5FBE8E7E7622122FC
:1034B000226384F83D6084F83E10416821F4E061A5
:1034C0004160206845612068016821F480610160E5
:1034D0002046FFF7C1FB2046FEF767FCCFE7000060
:1034E0000000FFFFF8B590F83D60044600684168B1
:1034F00021F4E06141602068002541690091016884
:1035000041F0010101602068016821F480610160DF
:1035100020684168090520D5474F222E48D02A2E21
:1035200046D0616B096849686185618D19B1216C6C
:1035300041F004012164416821F400614160606B45
:10354000FEF700F8012808D0606B4763606BFDF759
:10355000ADFF10B1606B416B8847608D08B3206888
:103560004169C943490708D40069616A0870606A03
:10357000401C6062608D401E608520684169C943BF
:10358000490608D40069616A0870606A401C60627C
:10359000608D401E6085608D18B1206C40F0040085
:1035A0002064206C00B32046BDE8F840FFF75CBB08
:1035B000A16B096849686185618D19B1216C41F081
:1035C00004012164416821F400614160A06BFDF7B2
:1035D000B9FF0128C1D0A06B4763A06BFDF766FF60
:1035E0000028BAD0A06BB6E72A2E06D12563282082
:1035F00084F83D002046FEF7D7FB94F83D102020CC
:1036000028290DD0216B222901D0222E07D1256334
:1036100084F83D0084F83E502046FEF7C5FBF8BD17
:103620000649E162256384F83D0084F83E50204657
:10363000FEF7E0FAF8BD00009D2B00080000FFFF38
:1036400070B516460D4604461EE02046FFF7B8FB4F
:1036500008B1012070BD681C16D0FEF783F8801BEE
:10366000A84200D885B920684069C04340070BD5FF
:10367000002044F8300F20216173A073216941F0CC
:10368000200121612073E4E720684069C0434007BE
:10369000DBD4002070BD00002DE9F04798461746A6
:1036A0000D460446C1F30746DDF820902AE000BF2E
:1036B000B8F1FF3F26D0FEF755F8A0EB09014145D0
:1036C00002D8B8F1000F1DD12068012E16D08069F4
:1036D00025EA00000004000C12D00020B84211D1ED
:1036E000002044F8300F20216173A073216941F05C
:1036F0002001216120730120BDE8F0874069E7E7E0
:103700000120EBE72068012E0AD0806925EA00003D
:103710000004000C06D00020B842C9D00020EBE71E
:103720004069F3E70120F7E72DE9F0479846164690
:103730000D4604464FF000094FF0200AC1F3074739
:1037400023E020684069C043400515D42068016823
:1037500041F40071016021686FF480604861C4F831
:10376000309084F83DA084F83E90216C41F0040133
:10377000216484F83C9021E0701C06D0FDF7F2FF34
:10378000A0EB0800B04203D816B1012F1FD021E0F2
:103790002068012F15D0806925EA00000004000C84
:1037A00018D000BF44F8309F84F80DA084F80E9024
:1037B000216941F02001216184F80C900120BDE8CD
:1037C000F087406925EA00000004000CEAD1206877
:1037D000406901E02068806925EA00000004000CCF
:1037E000AFD1ECE770B516460D4604461EE0204604
:1037F000FFF7E6FA08B1012070BD681C16D0FDF78E
:10380000B1FF801BA84200D885B920684069C04339
:1038100000060BD5002044F8300F20216173A073FF
:10382000216941F0200121612073E4E720684069AB
:10383000C0430006DBD4002070BD000070B586B028
:1038400000241D480094019402940394816941F07E
:1038500020018161816901F020010491816941F0B9
:1038600004018161816901F004010491816941F0E1
:10387000080181618069114E00F008004FF4006575
:103880000490002229463046FDF767FF012000958D
:10389000CDE901040220039069463046FDF768FE39
:1038A0004FF47040CDE90004694630460294FDF7BC
:1038B0005FFE06B070BD000000100240000801402D
:1038C0000D4810B50B4901600C49416000214FF4CF
:1038D00080428160C0E9031241618161C16101627E
:1038E000FEF7C4F8002803D0BDE81040FDF7DBBDAB
:1038F00010BD00000054004020000020A086010000
:1039000010B586B0002417480094019402940394E3
:1039100004941349059401604721C0E9011442F25F
:103920001071C0E9031444618461FEF775FD08B1AC
:10393000FDF7B9FD4FF48050009069460948FEF745
:1039400027FE08B1FDF7AFFD049404A905480594CE
:10395000FEF72EFD002801D0FDF7A5FD06B010BD35
:10396000002C01407400002010B58AB000242748C4
:10397000049405940694079408940994009401947F
:1039800002944FF08041039401604721C0E9011483
:1039900042F21071C0E903148461FEF73DFD08B1E5
:1039A000FDF781FD4FF48050049004A91748FEF7FD
:1039B000EFFD08B1FDF777FD1448FEF713FF08B1DE
:1039C000FDF771FD089408A910480994FEF7F0FC72
:1039D00008B1FDF768FD0120CDE900400294002206
:1039E00069460A480394FEF76BFE08B1FDF75BFDDC
:1039F000022000900190042269460448FEF760FE10
:103A0000002801D0FDF74FFD0AB010BDBC0000201A
:103A100010B58AB0002428480494059406940794AD
:103A2000089409940094019402942249039401603B
:103A30004721C0E9011442F21071C0E90314846106
:103A4000FEF7EAFC08B1FDF72EFD4FF4805004901C
:103A500004A91948FEF79CFD08B1FDF724FD16489E
:103A6000FEF7C0FE08B1FDF71EFD089408A9124834
:103A70000994FEF79DFC08B1FDF715FD0120CDE985
:103A800000400294002269460B480394FEF718FE9A
:103A900008B1FDF708FD022000900190042269465C
:103AA0000548FEF70DFE002801D0FDF7FCFC0AB02A
:103AB00010BD00000004004004010020FEE7FEE706
:103AC00010B5AE2000F096F8202000F093F81020FA
:103AD00000F090F8B02000F08DF8C82000F08AF8CF
:103AE000002000F087F8102000F084F8402000F05B
:103AF00081F8812000F07EF8DF2000F07BF8A12023
:103B000000F078F8A62000F075F8A82000F072F810
:103B10003F2000F06FF8A42000F06CF8D32000F0F4
:103B200069F8002000F066F8D52000F063F8F02076
:103B300000F060F8D92000F05DF8222000F05AF87B
:103B4000DA2000F057F8122000F054F8DB2000F0E3
:103B500051F8202000F04EF88D2000F04BF8142092
:103B600000F048F800F008F800F00CF9BDE810404B
:103B7000AF2000F03FB800004FF480610148FCF72F
:103B80004FBC0000ED0100203CB51C78059D203A9B
:103B9000CDE900455D68E41D5B78E408544303FB10
:103BA000045200F087F83CBD2DE9F8411E46154649
:103BB00088460446079F09E0334641462046009761
:103BC000FFF7E2FF70786D1C2044C4B22A78002A07
:103BD000F2D1BDE8F881000008B54FF0FF32009245
:103BE0000B46024678210248FEF708F808BD00009F
:103BF000200000200249487002210148FFF7ECBF75
:103C0000120000202DE9FC4180460720CDE9000389
:103C100001F00704CD08164602FA04F01F46C2B2AE
:103C200023464146284600F089F8002C0CD0601E3F
:103C3000C0B2CDE90007C4F1080026FA00F2681C02
:103C40000023414600F07AF8BDE8FC812DE9FC43F1
:103C500001F007061446CD089846814601F0070199
:103C600006EB080204FA01F0099F082A16D9072179
:103C7000CDE90017C2B233464946284600F05EF847
:103C800008EB06000938C0B2CDE90007C6F108000C
:103C900024FA00F2681C0023494607E0521ED1B204
:103CA000CDE90017C2B233464946284600F046F82F
:103CB000BDE8FC832DE9FF4F82B01D460F98934667
:103CC000C70800F0070088460026019018E0029817
:103CD00000240BEB060A00EB06090DE004FB05F0DF
:103CE000109B10F80A2008EBC400C1B209F0FF00D5
:103CF000FFF788FF641CE4B2BC42EFD3761CF6B237
:103D0000AE42E4D30198002815D005FB07F6002445
:103D100008EBC7070DE010980090311902981BF8C6
:103D200001202044F9B2C0B2019BFFF78FFF641C51
:103D3000E4B2AC42EFD306B0BDE8F08FF0B508288E
:103D4000DDE9056419D2802917D20CB1D243D2B271
:103D5000FF25761C05FA06F6C3F10803084F46EA6C
:103D60000204DD4007EBC017044B785CB2432C43E0
:103D7000AA4320401A7010437854F0BD1000002070
:103D8000ED01002070B5104D40200024287005F191
:103D9000810600BF04F1B000C0B2FFF72BFF002086
:103DA000FFF728FF1020FFF725FF06EBC411802244
:103DB000681CFCF7F0FA81210348FFF70DFF641C33
:103DC000E4B2082CE6D370BD6C0100207047704748
:103DD000FDF7ECBF30B58FB028216846FCF742FBF9
:103DE00014210AA8FCF73EFB01210804CDE90010CC
:103DF0000024029402250491CDE907504FF4E0100D
:103E000009906846FEF72EF908B172B6FEE70F205A
:103E1000CDE90A054FF48060CDE90C4002210AA8E3
:103E20000E94FEF753F8002801D072B6FEE70FB0EB
:103E300030BD70470148FEF775BD000074000020DA
:103E40000148FEF76FBD0000BC0000200148FEF7EE
:103E500069BD000004010020F0B50268164B174C44
:103E6000174D4FF08047984205D0B84203D0A0428A
:103E700001D0A84203D122F070064A68324398422A
:103E800005D0B84203D0A04201D0A84203D122F409
:103E90004074CA6822434C6922F0800222430260C7
:103EA0008A68C2620A688262984201D10969016324
:103EB00001214161F0BD0000002C014000040040E0
:103EC0000008004010B501F01F030121046A994069
:103ED0008C430462016A9A401143016210BD10B51F
:103EE000846842EA032224F47F440A432243826026
:103EF00010BD826822F070020A4342F0070181601F
:103F0000704710B5036A046A24F0010404628469EE
:103F100024F0F00444EA021423F00A020A43846104
:103F2000026210BD70B5056A046A24F001040462DF
:103F300084690F4EB04208D0B0F1804F05D00D4ECD
:103F4000B04202D00C4EB04203D124F0030414431B
:103F500001E044F001041A0724F0F00444EA12627C
:103F600025F00A0301F00A0119438261016270BD64
:103F7000002C0140000400400008004010B5036A16
:103F8000046A24F010040462846923F0A00324F47A
:103F9000704444EA023243EA01118261016210BDB9
:103FA00030B5046A056A25F010050562856925F4B7
:103FB000407545EA022222F470454FF6FF7202EA8C
:103FC000033224F0A0032A43A02404EA0111194378
:103FD0008261016230BDFEE7490050EAC12018BF8E
:103FE00004204A0D18BF40F0010040F2FF72B2EB0E
:103FF000515F08BF40F00200012808BF052070474C
:104000000907090E002804DB00F1E02080F8001405
:10401000704700F00F0000F1E02080F8141D704799
:1040200030380A2801D20120704700207047000074
:104030008AB0FDF7C3FEFFF7CDFEFFF7FFFBFFF7EA
:104040005FFCFFF791FCFFF7E3FCFFF739FCFFF79C
:1040500037FD2348FEF774FA00212148FEF7F0FBF4
:1040600004211F48FEF7ECFB1D4F1E4EDFF8788041
:10407000DFF87890DFF878A000244FF40065012283
:1040800029463046FDF769FB0120FDF75FFA002263
:1040900029463046FDF761FB386844621420FDF77D
:1040A00055FAFFF769FDD8F8000000F095F9D9F846
:1040B0000030DAF80020CDE9002302460B460DA1BE
:1040C00002A8FCF791F800210F4B02AA08460094C1
:1040D000FFF76AFDFFF756FE6420FDF737FACEE7DB
:1040E000BC000020000801401C0000201800002037
:1040F00014000020252E32662C636D2020256420BC
:104100002020256420200000584A000810B500290E
:104110000AD00878002807D005487844FCF7B2FD9B
:10412000002801D0002010BD0248784410BD0000D6
:10413000FA090000F209000021F00042A2F16052E9
:10414000B2F5801F01F0004328BFD2F17F6C0BD97C
:104150005FEA001C43EAC20242EB507018BF70478E
:1041600028BF20F001007047B2F5801FBCBF184681
:1041700070474FEA410C1CF5001F02D2084600F0C0
:104180009CB970B500F0D4F800000089FFF7F6BFC5
:104190004FF00040A0F580007047000002494FF04A
:1041A000000000F091B900BF0000F87F10F000425D
:1041B00048BF4042B0FA80F310FA03F10AD0C3F1CD
:1041C0001D0303F580634FEA415002EB035202EBFB
:1041D000D12170474FF0000070470000DFF848C160
:1041E00070B51CEA111E1EBF1CEA13159EEA0C0FC7
:1041F00095EA0C0F00F06F8081EA030423EA4C1368
:104200004EEAD47E21EA4C1141F4801143F480132C
:10421000AE44A1FB024CA0FB0365AEF17F7E3619D4
:1042200055EB0C05A1FB034C4CF10003A0FB021C59
:1042300016EB0C06654153F10003094218BF46F026
:10424000010613F4007F0BD14FEA03314FEA05302A
:10425000340341EA155140EA16506FF003020AE0B8
:104260004FEAC3214FEAC520F40241EA555140EA22
:1042700056506FF0020202EB2E4201EB025585EA26
:10428000CE710AD05FEA440C18BF24F0004450F10C
:10429000000041F1000120EAD47040F2FE7C62454A
:1042A00000D270BDA84214BF4FF080444FF040448C
:1042B000002E08BF0024BEF1806FA8BFA1F1C0414D
:1042C000BDE8704080F282804FF0000001F1C041F3
:1042D00001F0004170479EEA0C0F0CEA131518BF5D
:1042E00095EA0C0F06D04FF0000081EA030E0EF0A5
:1042F000004170BD00F01CF88900013E00F007B8D5
:1043000000F009B84FEA430C5FEA5C5C08D081EA30
:10431000030100F05BB84FEA410C5FEA5C5CF6D148
:104320004FF00000014970470000FF070000F87FD0
:104330000EF1020E2EF0030E5EF8046B364205D429
:10434000012A43EB030515F5001F12D8012841EBA4
:10435000010C1CF5001F0CD80ED14FEAD17C15F5CD
:10436000001F0CEB4C0C0CF1020C08BF4CEBD37C87
:1043700004E04FF0080C01E04FEAD37C0CEB4C0555
:1043800026FA05F606F00706B6F1040C06D20EEB87
:10439000860CBDE870404CF0010C6047DFE80CF083
:1043A000090B02024FF000414FF00000A1F500217F
:1043B00070BD19461046012851EB010418BFD4F511
:1043C000001484BF002001F0004170BD0808A0F572
:1043D00000114FEA3101704743004FEAD30C4FEA16
:1043E0003C0C43401FBF40070CF1605113F0FE4FDF
:1043F00070471CF0006F03D100200CF000417047A3
:104400000CF0004343EA507010B540EACC0000F0D5
:104410000EF800BF000000924FEA0001FFF7D6BF80
:104420004FF000414FF00000A1F5002170470EF160
:10443000020E2EF0030E5EF8044B244204D44FEA21
:104440004102B2F17F4F11D84FEA4003B3F17F4FE1
:104450000CD80ED14FEAD07CB2F17F4F0CEB4C0C54
:104460000CF1020C08BF4CEBD17C04E04FF0080CBF
:1044700001E04FEAD17C0CEB4C0324FA03F404F086
:104480000704B4F1040C06D20EEB840CBDE8104016
:104490004CF0010C6047DFE80CF0070802024FF017
:1044A0000040A0F5800010BD0846420018BFD2F1C0
:1044B000807288BF00F0004010BDFF2141EAD0505B
:1044C000C0057047FCF72AB90CF00F03092B08BF91
:1044D000082000F059800A2B0BD0082B18BF70471A
:1044E00008BF1CF0400F0AD04FF000004FF0000151
:1044F00070471CF0400F18BF4FF0004070471CF091
:10450000100F08D020F0704300F07F4242EAD30140
:104510004FEA4370704700F0604021F07F4242EA6A
:10452000000201F07F4040EA727070474FF0FF0CCC
:104530004CF4E06C1CEA11531CBF9CEA030C94453C
:10454000C2BFDA4201EB02517047002B0DD0BCF123
:10455000000F0FD0002A01F00041A4BF41F0E0415C
:1045600041F07F614FF00000704701F000414FF0D3
:104570000000704750EA01334FF09B0C18BF4CF01D
:10458000806C7FF40BAE70471CF4801F11D01CF4BC
:10459000E02F03D06FEACC31490070474FF0405014
:1045A000EFF3008222F0704242EA000282F30088B8
:1045B00070474FF000007047010202030405060730
:1045C00008090A0B0C0D0E0F10100000000000006F
:1045D00000000102030406070809000000000102B0
:1045E00003040000000000000000000000000000C4
:1045F000FC000000000002000000000C020C0200A1
:1046000000000000000090D0BCD0BC90000300036C
:1046100000001824FE448C00030207020100182445
:10462000D8B04C80000300010201C038E438E0003B
:104630000102020102020806000000000000000062
:104640000000000000F80402000000010204000263
:1046500004F800000004020100009060F86090007F
:104660000000010000002020FC20200000000100CC
:1046700000000000000000000806000000002020EC
:1046800020202000000000000000000000000000CA
:104690000002000000000080601C02000403000013
:1046A0000000F8040404F8000102020201000008FE
:1046B000FC000000000203020000188444241800DB
:1046C00003020202020008042424D80001020202AC
:1046D000010040B088FC80000000000302003C2480
:1046E0002424C400010202020100F824242CC0008A
:1046F0000102020201000C04E41C0400000003009B
:104700000000D8242424D800010202020100384409
:104710004444F80000030202010000001000000001
:104720000000020000000000200000000000060061
:104730000000002050880402000000000102909058
:1047400090909000000000000000000204885020BB
:104750000002010000001804C42418000000020038
:104760000000F804E494F80001020202020000E0F4
:104770009CF0800002030000030204FC2424D80003
:10478000020302020100F80404040C000102020208
:10479000010004FC0404F80002030202010004FC0E
:1047A00024740C0002030202030004FC24740C00B5
:1047B000020302000000F0080444CC4000010202A1
:1047C000010004FC2020FC04020300000302040496
:1047D000FC040400020203020200000404FC0404BE
:1047E00006040403000004FC24D00C0402030200AD
:1047F000030204FC04000000020302020203FC3C6A
:10480000C03CFC0003000300030004FC30C4FC04B3
:10481000020302000300F8040404F800010202028B
:10482000010004FC24241800020302000000F884A4
:104830008404F80001020207050004FC24649800C7
:10484000020302000302182424448C000302020223
:1048500001000C04FC040C0000020302000004FC34
:104860000000FC04000102020100047C80E01C0442
:104870000000030000001CE03CE01C0000030003FB
:104880000000049C609C0400020300030200041C5E
:10489000E01C04000002030200000C84641C0400FD
:1048A0000203020203000000FE02020000000704EF
:1048B0000400000E30C000000000000102000002F1
:1048C00002FE0000000404070000000402040000CF
:1048D00000000000000000000000000008080808B8
:1048E0000808000002000000000000000000004076
:1048F000A0A0C00000010202030204FC2020C000AE
:1049000000030202010000C020206000000102023A
:10491000020000C02024FC0000010202030200C0CB
:10492000A0A0C0000001020202000020F82424041C
:104930000002030202000040A0A0602000070A0A53
:104940000A0404FC2020C00002030200030200202D
:10495000E4000000000203020000000020E4000068
:1049600008080807000004FC80E020200203020081
:1049700003020404FC000000020203020200E02023
:10498000E020C00003000300030020E02020C0005E
:1049900002030200030200C02020C0000001020246
:1049A000010020E02020C000080F0A02010000C022
:1049B0002020E0000001020A0F0820E04020200033
:1049C0000203020000000060A0A02000000202021A
:1049D00003000020F820000000000102020020E097
:1049E0000020E00000010202030220E0208060209D
:1049F0000000030100006080E0806000000300030D
:104A0000000020608060200002030003020020E01C
:104A1000208060200808070100000020A06020001E
:104A2000000203020200000020DE02000000000776
:104A30000400000000FF00000000000F0000000262
:104A4000DE2000000004070000000201020404024E
:104A500000000000000000000C060000E245000815
:104A600002400000000000A000000000054000001F
:104A7000000000C8000000000C4000000000409C46
:104A800000000000194000000020BCBE0000000033
:104A900034400000BFC91B8E00000004B540000078
:104AA000504BCFD06607E2CF010000006C41000000
:104AB0003E8251AADFEEA73401000000D942000077
:104AC000DCB5A0E23A301F97FFFFFFFFB4450000BE
:104AD000FD25A0C8E9A3C14FFFFFFFFFFF3F000076
:104AE0000000008000000000FF3F00000000008088
:104AF00000000000304B00080000002020000000F3
:104B000028010008504B000820000020300C000055
:104B1000440100081C00000043000000F8FFFFFFF4
:104B20000C0000000E0000000F0000002E0000002E
:104B30000100000010000000000000000024F4004C
:104B40000000000000000000000000000000000065
:04000005080000ED02
:00000001FF
